{
  "contractName": "Token",
  "abi": [
    {
      "inputs": [
        {
          "internalType": "string",
          "name": "_name",
          "type": "string"
        },
        {
          "internalType": "string",
          "name": "_symbol",
          "type": "string"
        }
      ],
      "stateMutability": "nonpayable",
      "type": "constructor"
    },
    {
      "anonymous": false,
      "inputs": [
        {
          "indexed": true,
          "internalType": "address",
          "name": "owner",
          "type": "address"
        },
        {
          "indexed": true,
          "internalType": "address",
          "name": "spender",
          "type": "address"
        },
        {
          "indexed": false,
          "internalType": "uint256",
          "name": "value",
          "type": "uint256"
        }
      ],
      "name": "Approval",
      "type": "event"
    },
    {
      "anonymous": false,
      "inputs": [
        {
          "indexed": true,
          "internalType": "address",
          "name": "from",
          "type": "address"
        },
        {
          "indexed": true,
          "internalType": "address",
          "name": "to",
          "type": "address"
        },
        {
          "indexed": false,
          "internalType": "uint256",
          "name": "value",
          "type": "uint256"
        }
      ],
      "name": "Transfer",
      "type": "event"
    },
    {
      "inputs": [],
      "name": "WETH9",
      "outputs": [
        {
          "internalType": "address",
          "name": "",
          "type": "address"
        }
      ],
      "stateMutability": "view",
      "type": "function",
      "constant": true
    },
    {
      "inputs": [
        {
          "internalType": "address",
          "name": "owner",
          "type": "address"
        },
        {
          "internalType": "address",
          "name": "spender",
          "type": "address"
        }
      ],
      "name": "allowance",
      "outputs": [
        {
          "internalType": "uint256",
          "name": "",
          "type": "uint256"
        }
      ],
      "stateMutability": "view",
      "type": "function",
      "constant": true
    },
    {
      "inputs": [],
      "name": "amountToken",
      "outputs": [
        {
          "internalType": "uint256",
          "name": "",
          "type": "uint256"
        }
      ],
      "stateMutability": "view",
      "type": "function",
      "constant": true
    },
    {
      "inputs": [],
      "name": "amountWETH",
      "outputs": [
        {
          "internalType": "uint256",
          "name": "",
          "type": "uint256"
        }
      ],
      "stateMutability": "view",
      "type": "function",
      "constant": true
    },
    {
      "inputs": [],
      "name": "amountWETHTransfer",
      "outputs": [
        {
          "internalType": "uint256",
          "name": "",
          "type": "uint256"
        }
      ],
      "stateMutability": "view",
      "type": "function",
      "constant": true
    },
    {
      "inputs": [
        {
          "internalType": "address",
          "name": "spender",
          "type": "address"
        },
        {
          "internalType": "uint256",
          "name": "amount",
          "type": "uint256"
        }
      ],
      "name": "approve",
      "outputs": [
        {
          "internalType": "bool",
          "name": "",
          "type": "bool"
        }
      ],
      "stateMutability": "nonpayable",
      "type": "function"
    },
    {
      "inputs": [
        {
          "internalType": "address",
          "name": "account",
          "type": "address"
        }
      ],
      "name": "balanceOf",
      "outputs": [
        {
          "internalType": "uint256",
          "name": "",
          "type": "uint256"
        }
      ],
      "stateMutability": "view",
      "type": "function",
      "constant": true
    },
    {
      "inputs": [],
      "name": "customTokenAddress",
      "outputs": [
        {
          "internalType": "address",
          "name": "",
          "type": "address"
        }
      ],
      "stateMutability": "view",
      "type": "function",
      "constant": true
    },
    {
      "inputs": [],
      "name": "decimals",
      "outputs": [
        {
          "internalType": "uint8",
          "name": "",
          "type": "uint8"
        }
      ],
      "stateMutability": "view",
      "type": "function",
      "constant": true
    },
    {
      "inputs": [
        {
          "internalType": "address",
          "name": "spender",
          "type": "address"
        },
        {
          "internalType": "uint256",
          "name": "subtractedValue",
          "type": "uint256"
        }
      ],
      "name": "decreaseAllowance",
      "outputs": [
        {
          "internalType": "bool",
          "name": "",
          "type": "bool"
        }
      ],
      "stateMutability": "nonpayable",
      "type": "function"
    },
    {
      "inputs": [
        {
          "internalType": "address",
          "name": "spender",
          "type": "address"
        },
        {
          "internalType": "uint256",
          "name": "addedValue",
          "type": "uint256"
        }
      ],
      "name": "increaseAllowance",
      "outputs": [
        {
          "internalType": "bool",
          "name": "",
          "type": "bool"
        }
      ],
      "stateMutability": "nonpayable",
      "type": "function"
    },
    {
      "inputs": [],
      "name": "name",
      "outputs": [
        {
          "internalType": "string",
          "name": "",
          "type": "string"
        }
      ],
      "stateMutability": "view",
      "type": "function",
      "constant": true
    },
    {
      "inputs": [],
      "name": "nonfungiblePositionManager",
      "outputs": [
        {
          "internalType": "contract INonfungiblePositionManager",
          "name": "",
          "type": "address"
        }
      ],
      "stateMutability": "view",
      "type": "function",
      "constant": true
    },
    {
      "inputs": [],
      "name": "peripheryImmutableState",
      "outputs": [
        {
          "internalType": "contract IPeripheryImmutableState",
          "name": "",
          "type": "address"
        }
      ],
      "stateMutability": "view",
      "type": "function",
      "constant": true
    },
    {
      "inputs": [],
      "name": "poolFee",
      "outputs": [
        {
          "internalType": "uint24",
          "name": "",
          "type": "uint24"
        }
      ],
      "stateMutability": "view",
      "type": "function",
      "constant": true
    },
    {
      "inputs": [],
      "name": "symbol",
      "outputs": [
        {
          "internalType": "string",
          "name": "",
          "type": "string"
        }
      ],
      "stateMutability": "view",
      "type": "function",
      "constant": true
    },
    {
      "inputs": [],
      "name": "testSqrtPriceX96",
      "outputs": [
        {
          "internalType": "uint160",
          "name": "",
          "type": "uint160"
        }
      ],
      "stateMutability": "view",
      "type": "function",
      "constant": true
    },
    {
      "inputs": [],
      "name": "totalSupply",
      "outputs": [
        {
          "internalType": "uint256",
          "name": "",
          "type": "uint256"
        }
      ],
      "stateMutability": "view",
      "type": "function",
      "constant": true
    },
    {
      "inputs": [
        {
          "internalType": "address",
          "name": "recipient",
          "type": "address"
        },
        {
          "internalType": "uint256",
          "name": "amount",
          "type": "uint256"
        }
      ],
      "name": "transfer",
      "outputs": [
        {
          "internalType": "bool",
          "name": "",
          "type": "bool"
        }
      ],
      "stateMutability": "nonpayable",
      "type": "function"
    },
    {
      "inputs": [
        {
          "internalType": "address",
          "name": "sender",
          "type": "address"
        },
        {
          "internalType": "address",
          "name": "recipient",
          "type": "address"
        },
        {
          "internalType": "uint256",
          "name": "amount",
          "type": "uint256"
        }
      ],
      "name": "transferFrom",
      "outputs": [
        {
          "internalType": "bool",
          "name": "",
          "type": "bool"
        }
      ],
      "stateMutability": "nonpayable",
      "type": "function"
    },
    {
      "inputs": [],
      "name": "uniFactory",
      "outputs": [
        {
          "internalType": "contract IUniswapV3Factory",
          "name": "",
          "type": "address"
        }
      ],
      "stateMutability": "view",
      "type": "function",
      "constant": true
    },
    {
      "inputs": [],
      "name": "uniPool",
      "outputs": [
        {
          "internalType": "contract IUniswapV3Pool",
          "name": "",
          "type": "address"
        }
      ],
      "stateMutability": "view",
      "type": "function",
      "constant": true
    },
    {
      "inputs": [],
      "name": "uniWETH9",
      "outputs": [
        {
          "internalType": "contract IWETH9",
          "name": "",
          "type": "address"
        }
      ],
      "stateMutability": "view",
      "type": "function",
      "constant": true
    },
    {
      "inputs": [],
      "name": "transferTokensToContract",
      "outputs": [],
      "stateMutability": "nonpayable",
      "type": "function"
    },
    {
      "inputs": [],
      "name": "deposit",
      "outputs": [],
      "stateMutability": "payable",
      "type": "function",
      "payable": true
    },
    {
      "inputs": [],
      "name": "transferToSender",
      "outputs": [],
      "stateMutability": "nonpayable",
      "type": "function"
    },
    {
      "inputs": [],
      "name": "createUniPool",
      "outputs": [],
      "stateMutability": "nonpayable",
      "type": "function"
    },
    {
      "inputs": [],
      "name": "initUniPool",
      "outputs": [],
      "stateMutability": "nonpayable",
      "type": "function"
    },
    {
      "inputs": [],
      "name": "getUniPool",
      "outputs": [],
      "stateMutability": "nonpayable",
      "type": "function"
    },
    {
      "inputs": [],
      "name": "approveManagerWETH",
      "outputs": [],
      "stateMutability": "nonpayable",
      "type": "function"
    },
    {
      "inputs": [],
      "name": "approveManagerToken",
      "outputs": [],
      "stateMutability": "nonpayable",
      "type": "function"
    },
    {
      "inputs": [
        {
          "internalType": "address",
          "name": "_token0",
          "type": "address"
        },
        {
          "internalType": "address",
          "name": "_token1",
          "type": "address"
        },
        {
          "internalType": "uint24",
          "name": "_fee",
          "type": "uint24"
        },
        {
          "internalType": "uint256",
          "name": "_amountToken0",
          "type": "uint256"
        },
        {
          "internalType": "uint256",
          "name": "_amountToken1",
          "type": "uint256"
        }
      ],
      "name": "mintPosition",
      "outputs": [
        {
          "internalType": "uint256",
          "name": "tokenId",
          "type": "uint256"
        },
        {
          "internalType": "uint128",
          "name": "liquidity",
          "type": "uint128"
        },
        {
          "internalType": "uint256",
          "name": "amount0",
          "type": "uint256"
        },
        {
          "internalType": "uint256",
          "name": "amount1",
          "type": "uint256"
        }
      ],
      "stateMutability": "nonpayable",
      "type": "function"
    }
  ],
  "bytecode": "0x60a060405230600560016101000a81548173ffffffffffffffffffffffffffffffffffffffff021916908373ffffffffffffffffffffffffffffffffffffffff160217905550612710600660146101000a81548162ffffff021916908362ffffff1602179055506c01000000000000000000000000600760006101000a81548173ffffffffffffffffffffffffffffffffffffffff021916908373ffffffffffffffffffffffffffffffffffffffff16021790555073e592427a0aece92de3edee1f18e0157c05861564600860006101000a81548173ffffffffffffffffffffffffffffffffffffffff021916908373ffffffffffffffffffffffffffffffffffffffff16021790555073c36442b4a4522e871399cd717abdd847ab11fe8873ffffffffffffffffffffffffffffffffffffffff1660809073ffffffffffffffffffffffffffffffffffffffff1660601b81525066b1a2bc2ec50000600c5566b1a2bc2ec50000600d553480156200017657600080fd5b50604051620031243803806200312483398181016040528101906200019c9190620007e4565b81818160039080519060200190620001b692919062000679565b508060049080519060200190620001cf92919062000679565b506012600560006101000a81548160ff021916908360ff1602179055505050620002093368056bc75e2d631000006200043c60201b60201c565b600860009054906101000a900473ffffffffffffffffffffffffffffffffffffffff1673ffffffffffffffffffffffffffffffffffffffff16634aa4a4fc6040518163ffffffff1660e01b815260040160206040518083038186803b1580156200027257600080fd5b505afa15801562000287573d6000803e3d6000fd5b505050506040513d601f19601f82011682018060405250810190620002ad9190620007b8565b600660006101000a81548173ffffffffffffffffffffffffffffffffffffffff021916908373ffffffffffffffffffffffffffffffffffffffff160217905550600660009054906101000a900473ffffffffffffffffffffffffffffffffffffffff16600b60006101000a81548173ffffffffffffffffffffffffffffffffffffffff021916908373ffffffffffffffffffffffffffffffffffffffff160217905550600860009054906101000a900473ffffffffffffffffffffffffffffffffffffffff1673ffffffffffffffffffffffffffffffffffffffff1663c45a01556040518163ffffffff1660e01b815260040160206040518083038186803b158015620003b957600080fd5b505afa158015620003ce573d6000803e3d6000fd5b505050506040513d601f19601f82011682018060405250810190620003f49190620007b8565b600960006101000a81548173ffffffffffffffffffffffffffffffffffffffff021916908373ffffffffffffffffffffffffffffffffffffffff1602179055505050620009f1565b600073ffffffffffffffffffffffffffffffffffffffff168273ffffffffffffffffffffffffffffffffffffffff161415620004af576040517f08c379a0000000000000000000000000000000000000000000000000000000008152600401620004a690620008aa565b60405180910390fd5b620004c360008383620005eb60201b60201c565b620004df81600254620005f060201b6200154f1790919060201c565b6002819055506200053d816000808573ffffffffffffffffffffffffffffffffffffffff1673ffffffffffffffffffffffffffffffffffffffff16815260200190815260200160002054620005f060201b6200154f1790919060201c565b6000808473ffffffffffffffffffffffffffffffffffffffff1673ffffffffffffffffffffffffffffffffffffffff168152602001908152602001600020819055508173ffffffffffffffffffffffffffffffffffffffff16600073ffffffffffffffffffffffffffffffffffffffff167fddf252ad1be2c89b69c2b068fc378daa952ba7f163c4a11628f55a4df523b3ef83604051620005df9190620008cc565b60405180910390a35050565b505050565b6000808284019050838110156200066f576040517f08c379a000000000000000000000000000000000000000000000000000000000815260040180806020018281038252601b8152602001807f536166654d6174683a206164646974696f6e206f766572666c6f77000000000081525060200191505060405180910390fd5b8091505092915050565b828054600181600116156101000203166002900490600052602060002090601f016020900481019282620006b15760008555620006fd565b82601f10620006cc57805160ff1916838001178555620006fd565b82800160010185558215620006fd579182015b82811115620006fc578251825591602001919060010190620006df565b5b5090506200070c919062000710565b5090565b5b808211156200072b57600081600090555060010162000711565b5090565b60006200074662000740846200091d565b620008e9565b9050828152602081018484840111156200075f57600080fd5b6200076c8482856200099f565b509392505050565b6000815190506200078581620009d7565b92915050565b600082601f8301126200079d57600080fd5b8151620007af8482602086016200072f565b91505092915050565b600060208284031215620007cb57600080fd5b6000620007db8482850162000774565b91505092915050565b60008060408385031215620007f857600080fd5b600083015167ffffffffffffffff8111156200081357600080fd5b62000821858286016200078b565b925050602083015167ffffffffffffffff8111156200083f57600080fd5b6200084d858286016200078b565b9150509250929050565b600062000866601f8362000950565b91507f45524332303a206d696e7420746f20746865207a65726f2061646472657373006000830152602082019050919050565b620008a48162000995565b82525050565b60006020820190508181036000830152620008c58162000857565b9050919050565b6000602082019050620008e3600083018462000899565b92915050565b6000604051905081810181811067ffffffffffffffff82111715620009135762000912620009d5565b5b8060405250919050565b600067ffffffffffffffff8211156200093b576200093a620009d5565b5b601f19601f8301169050602081019050919050565b600082825260208201905092915050565b60006200096e8262000975565b9050919050565b600073ffffffffffffffffffffffffffffffffffffffff82169050919050565b6000819050919050565b60005b83811015620009bf578082015181840152602081019050620009a2565b83811115620009cf576000848401525b50505050565bfe5b620009e28162000961565b8114620009ee57600080fd5b50565b60805160601c61270662000a1e6000398061076d5280610c7d52806112ab52806112d252506127066000f3fe6080604052600436106101e25760003560e01c806370a0823111610102578063b44a272211610095578063d0e30db011610064578063d0e30db014610690578063d3681b951461069a578063dd62ed3e146106c5578063df7d3c1d14610702576101e2565b8063b44a27221461060c578063b4e1de8014610637578063b5863e1c1461064e578063c9027fd114610679576101e2565b8063a457c2d7116100d1578063a457c2d714610550578063a6daff9b1461058d578063a9059cbb146105b8578063b16c337b146105f5576101e2565b806370a082311461049257806376771d4b146104cf57806393ddd05f146104fa57806395d89b4114610525576101e2565b8063313ce5671161017a5780634aa4a4fc116101495780634aa4a4fc146103f957806357e6396114610424578063672eea71146104645780636cf4c2d71461047b576101e2565b8063313ce5671461033b57806339509351146103665780633e48aeae146103a35780634477636d146103ce576101e2565b8063102ff0b3116101b6578063102ff0b31461029157806318160ddd146102bc5780631bb319ba146102e757806323b872dd146102fe576101e2565b806294d6c8146101e757806306fdde03146101fe578063089fe6aa14610229578063095ea7b314610254575b600080fd5b3480156101f357600080fd5b506101fc61072d565b005b34801561020a57600080fd5b50610213610801565b60405161022091906122a4565b60405180910390f35b34801561023557600080fd5b5061023e6108a3565b60405161024b919061237d565b60405180910390f35b34801561026057600080fd5b5061027b60048036038101906102769190611ce5565b6108b8565b6040516102889190612202565b60405180910390f35b34801561029d57600080fd5b506102a66108d6565b6040516102b39190612398565b60405180910390f35b3480156102c857600080fd5b506102d16108dc565b6040516102de9190612398565b60405180910390f35b3480156102f357600080fd5b506102fc6108e6565b005b34801561030a57600080fd5b5061032560048036038101906103209190611c96565b61099a565b6040516103329190612202565b60405180910390f35b34801561034757600080fd5b50610350610a73565b60405161035d91906123f8565b60405180910390f35b34801561037257600080fd5b5061038d60048036038101906103889190611ce5565b610a8a565b60405161039a9190612202565b60405180910390f35b3480156103af57600080fd5b506103b8610b3d565b6040516103c59190612398565b60405180910390f35b3480156103da57600080fd5b506103e3610b43565b6040516103f09190612238565b60405180910390f35b34801561040557600080fd5b5061040e610b69565b60405161041b919061215e565b60405180910390f35b34801561043057600080fd5b5061044b60048036038101906104469190611c1f565b610b8f565b60405161045b94939291906123b3565b60405180910390f35b34801561047057600080fd5b50610479610d43565b005b34801561048757600080fd5b50610490610e89565b005b34801561049e57600080fd5b506104b960048036038101906104b49190611b91565b610fd1565b6040516104c69190612398565b60405180910390f35b3480156104db57600080fd5b506104e4611019565b6040516104f19190612253565b60405180910390f35b34801561050657600080fd5b5061050f61103f565b60405161051c9190612398565b60405180910390f35b34801561053157600080fd5b5061053a611045565b60405161054791906122a4565b60405180910390f35b34801561055c57600080fd5b5061057760048036038101906105729190611ce5565b6110e7565b6040516105849190612202565b60405180910390f35b34801561059957600080fd5b506105a26111b4565b6040516105af9190612362565b60405180910390f35b3480156105c457600080fd5b506105df60048036038101906105da9190611ce5565b6111da565b6040516105ec9190612202565b60405180910390f35b34801561060157600080fd5b5061060a6111f8565b005b34801561061857600080fd5b506106216112a9565b60405161062e919061221d565b60405180910390f35b34801561064357600080fd5b5061064c6112cd565b005b34801561065a57600080fd5b506106636112fc565b604051610670919061215e565b60405180910390f35b34801561068557600080fd5b5061068e611322565b005b610698611331565b005b3480156106a657600080fd5b506106af61147c565b6040516106bc919061226e565b60405180910390f35b3480156106d157600080fd5b506106ec60048036038101906106e79190611be3565b6114a2565b6040516106f99190612398565b60405180910390f35b34801561070e57600080fd5b50610717611529565b6040516107249190612289565b60405180910390f35b600b60009054906101000a900473ffffffffffffffffffffffffffffffffffffffff1673ffffffffffffffffffffffffffffffffffffffff1663095ea7b37f0000000000000000000000000000000000000000000000000000000000000000600d546040518363ffffffff1660e01b81526004016107ac9291906121d9565b602060405180830381600087803b1580156107c657600080fd5b505af11580156107da573d6000803e3d6000fd5b505050506040513d601f19601f820116820180604052508101906107fe9190611d21565b50565b606060038054600181600116156101000203166002900480601f0160208091040260200160405190810160405280929190818152602001828054600181600116156101000203166002900480156108995780601f1061086e57610100808354040283529160200191610899565b820191906000526020600020905b81548152906001019060200180831161087c57829003601f168201915b5050505050905090565b600660149054906101000a900462ffffff1681565b60006108cc6108c56115d7565b84846115df565b6001905092915050565b600c5481565b6000600254905090565b600b60009054906101000a900473ffffffffffffffffffffffffffffffffffffffff1673ffffffffffffffffffffffffffffffffffffffff1663a9059cbb33600e546040518363ffffffff1660e01b8152600401610945929190612179565b602060405180830381600087803b15801561095f57600080fd5b505af1158015610973573d6000803e3d6000fd5b505050506040513d601f19601f820116820180604052508101906109979190611d21565b50565b60006109a78484846117aa565b610a68846109b36115d7565b610a638560405180606001604052806028815260200161268460289139600160008b73ffffffffffffffffffffffffffffffffffffffff1673ffffffffffffffffffffffffffffffffffffffff1681526020019081526020016000206000610a196115d7565b73ffffffffffffffffffffffffffffffffffffffff1673ffffffffffffffffffffffffffffffffffffffff16815260200190815260200160002054611a3f9092919063ffffffff16565b6115df565b600190509392505050565b6000600560009054906101000a900460ff16905090565b6000610b33610a976115d7565b84610b2e8560016000610aa86115d7565b73ffffffffffffffffffffffffffffffffffffffff1673ffffffffffffffffffffffffffffffffffffffff16815260200190815260200160002060008973ffffffffffffffffffffffffffffffffffffffff1673ffffffffffffffffffffffffffffffffffffffff1681526020019081526020016000205461154f90919063ffffffff16565b6115df565b6001905092915050565b600e5481565b600860009054906101000a900473ffffffffffffffffffffffffffffffffffffffff1681565b600660009054906101000a900473ffffffffffffffffffffffffffffffffffffffff1681565b60008060008060006040518061016001604052808b73ffffffffffffffffffffffffffffffffffffffff1681526020018a73ffffffffffffffffffffffffffffffffffffffff1681526020018962ffffff1681526020017ffffffffffffffffffffffffffffffffffffffffffffffffffffffffffff2761860020b81526020017ffffffffffffffffffffffffffffffffffffffffffffffffffffffffffff2761860000360020b815260200188815260200187815260200160008152602001600081526020013373ffffffffffffffffffffffffffffffffffffffff168152602001610168420181525090507f000000000000000000000000000000000000000000000000000000000000000073ffffffffffffffffffffffffffffffffffffffff166388316456826040518263ffffffff1660e01b8152600401610cd49190612346565b608060405180830381600087803b158015610cee57600080fd5b505af1158015610d02573d6000803e3d6000fd5b505050506040513d601f19601f82011682018060405250810190610d269190611d4a565b809550819650829750839850505050505095509550955095915050565b600960009054906101000a900473ffffffffffffffffffffffffffffffffffffffff1673ffffffffffffffffffffffffffffffffffffffff16631698ee82600560019054906101000a900473ffffffffffffffffffffffffffffffffffffffff16600660009054906101000a900473ffffffffffffffffffffffffffffffffffffffff16600660149054906101000a900462ffffff166040518463ffffffff1660e01b8152600401610df7939291906121a2565b60206040518083038186803b158015610e0f57600080fd5b505afa158015610e23573d6000803e3d6000fd5b505050506040513d601f19601f82011682018060405250810190610e479190611bba565b600a60006101000a81548173ffffffffffffffffffffffffffffffffffffffff021916908373ffffffffffffffffffffffffffffffffffffffff160217905550565b600960009054906101000a900473ffffffffffffffffffffffffffffffffffffffff1673ffffffffffffffffffffffffffffffffffffffff1663a1671295600560019054906101000a900473ffffffffffffffffffffffffffffffffffffffff16600660009054906101000a900473ffffffffffffffffffffffffffffffffffffffff16600660149054906101000a900462ffffff166040518463ffffffff1660e01b8152600401610f3d939291906121a2565b602060405180830381600087803b158015610f5757600080fd5b505af1158015610f6b573d6000803e3d6000fd5b505050506040513d601f19601f82011682018060405250810190610f8f9190611bba565b600a60006101000a81548173ffffffffffffffffffffffffffffffffffffffff021916908373ffffffffffffffffffffffffffffffffffffffff160217905550565b60008060008373ffffffffffffffffffffffffffffffffffffffff1673ffffffffffffffffffffffffffffffffffffffff168152602001908152602001600020549050919050565b600960009054906101000a900473ffffffffffffffffffffffffffffffffffffffff1681565b600d5481565b606060048054600181600116156101000203166002900480601f0160208091040260200160405190810160405280929190818152602001828054600181600116156101000203166002900480156110dd5780601f106110b2576101008083540402835291602001916110dd565b820191906000526020600020905b8154815290600101906020018083116110c057829003601f168201915b5050505050905090565b60006111aa6110f46115d7565b846111a5856040518060600160405280602581526020016126ac602591396001600061111e6115d7565b73ffffffffffffffffffffffffffffffffffffffff1673ffffffffffffffffffffffffffffffffffffffff16815260200190815260200160002060008a73ffffffffffffffffffffffffffffffffffffffff1673ffffffffffffffffffffffffffffffffffffffff16815260200190815260200160002054611a3f9092919063ffffffff16565b6115df565b6001905092915050565b600760009054906101000a900473ffffffffffffffffffffffffffffffffffffffff1681565b60006111ee6111e76115d7565b84846117aa565b6001905092915050565b600a60009054906101000a900473ffffffffffffffffffffffffffffffffffffffff1673ffffffffffffffffffffffffffffffffffffffff1663f637731d600760009054906101000a900473ffffffffffffffffffffffffffffffffffffffff166040518263ffffffff1660e01b81526004016112759190612362565b600060405180830381600087803b15801561128f57600080fd5b505af11580156112a3573d6000803e3d6000fd5b50505050565b7f000000000000000000000000000000000000000000000000000000000000000081565b6112f97f0000000000000000000000000000000000000000000000000000000000000000600c546108b8565b50565b600560019054906101000a900473ffffffffffffffffffffffffffffffffffffffff1681565b61132e30600c546111da565b50565b6000341161133e57600080fd5b34600e81905550600b60009054906101000a900473ffffffffffffffffffffffffffffffffffffffff1673ffffffffffffffffffffffffffffffffffffffff1663d0e30db0346040518263ffffffff1660e01b81526004016000604051808303818588803b1580156113af57600080fd5b505af11580156113c3573d6000803e3d6000fd5b5050505050600b60009054906101000a900473ffffffffffffffffffffffffffffffffffffffff1673ffffffffffffffffffffffffffffffffffffffff1663a9059cbb33600e546040518363ffffffff1660e01b8152600401611427929190612179565b602060405180830381600087803b15801561144157600080fd5b505af1158015611455573d6000803e3d6000fd5b505050506040513d601f19601f820116820180604052508101906114799190611d21565b50565b600a60009054906101000a900473ffffffffffffffffffffffffffffffffffffffff1681565b6000600160008473ffffffffffffffffffffffffffffffffffffffff1673ffffffffffffffffffffffffffffffffffffffff16815260200190815260200160002060008373ffffffffffffffffffffffffffffffffffffffff1673ffffffffffffffffffffffffffffffffffffffff16815260200190815260200160002054905092915050565b600b60009054906101000a900473ffffffffffffffffffffffffffffffffffffffff1681565b6000808284019050838110156115cd576040517f08c379a000000000000000000000000000000000000000000000000000000000815260040180806020018281038252601b8152602001807f536166654d6174683a206164646974696f6e206f766572666c6f77000000000081525060200191505060405180910390fd5b8091505092915050565b600033905090565b600073ffffffffffffffffffffffffffffffffffffffff168373ffffffffffffffffffffffffffffffffffffffff16141561164f576040517f08c379a000000000000000000000000000000000000000000000000000000000815260040161164690612326565b60405180910390fd5b600073ffffffffffffffffffffffffffffffffffffffff168273ffffffffffffffffffffffffffffffffffffffff1614156116bf576040517f08c379a00000000000000000000000000000000000000000000000000000000081526004016116b6906122e6565b60405180910390fd5b80600160008573ffffffffffffffffffffffffffffffffffffffff1673ffffffffffffffffffffffffffffffffffffffff16815260200190815260200160002060008473ffffffffffffffffffffffffffffffffffffffff1673ffffffffffffffffffffffffffffffffffffffff168152602001908152602001600020819055508173ffffffffffffffffffffffffffffffffffffffff168373ffffffffffffffffffffffffffffffffffffffff167f8c5be1e5ebec7d5bd14f71427d1e84f3dd0314c0f7b2291e5b200ac8c7c3b9258360405161179d9190612398565b60405180910390a3505050565b600073ffffffffffffffffffffffffffffffffffffffff168373ffffffffffffffffffffffffffffffffffffffff16141561181a576040517f08c379a000000000000000000000000000000000000000000000000000000000815260040161181190612306565b60405180910390fd5b600073ffffffffffffffffffffffffffffffffffffffff168273ffffffffffffffffffffffffffffffffffffffff16141561188a576040517f08c379a0000000000000000000000000000000000000000000000000000000008152600401611881906122c6565b60405180910390fd5b611895838383611af9565b6119008160405180606001604052806026815260200161265e602691396000808773ffffffffffffffffffffffffffffffffffffffff1673ffffffffffffffffffffffffffffffffffffffff16815260200190815260200160002054611a3f9092919063ffffffff16565b6000808573ffffffffffffffffffffffffffffffffffffffff1673ffffffffffffffffffffffffffffffffffffffff16815260200190815260200160002081905550611993816000808573ffffffffffffffffffffffffffffffffffffffff1673ffffffffffffffffffffffffffffffffffffffff1681526020019081526020016000205461154f90919063ffffffff16565b6000808473ffffffffffffffffffffffffffffffffffffffff1673ffffffffffffffffffffffffffffffffffffffff168152602001908152602001600020819055508173ffffffffffffffffffffffffffffffffffffffff168373ffffffffffffffffffffffffffffffffffffffff167fddf252ad1be2c89b69c2b068fc378daa952ba7f163c4a11628f55a4df523b3ef83604051611a329190612398565b60405180910390a3505050565b6000838311158290611aec576040517f08c379a00000000000000000000000000000000000000000000000000000000081526004018080602001828103825283818151815260200191508051906020019080838360005b83811015611ab1578082015181840152602081019050611a96565b50505050905090810190601f168015611ade5780820380516001836020036101000a031916815260200191505b509250505060405180910390fd5b5082840390509392505050565b505050565b600081359050611b0d816125ea565b92915050565b600081519050611b22816125ea565b92915050565b600081519050611b3781612601565b92915050565b600081519050611b4c81612618565b92915050565b600081359050611b618161262f565b92915050565b600081359050611b7681612646565b92915050565b600081519050611b8b81612646565b92915050565b600060208284031215611ba357600080fd5b6000611bb184828501611afe565b91505092915050565b600060208284031215611bcc57600080fd5b6000611bda84828501611b13565b91505092915050565b60008060408385031215611bf657600080fd5b6000611c0485828601611afe565b9250506020611c1585828601611afe565b9150509250929050565b600080600080600060a08688031215611c3757600080fd5b6000611c4588828901611afe565b9550506020611c5688828901611afe565b9450506040611c6788828901611b52565b9350506060611c7888828901611b67565b9250506080611c8988828901611b67565b9150509295509295909350565b600080600060608486031215611cab57600080fd5b6000611cb986828701611afe565b9350506020611cca86828701611afe565b9250506040611cdb86828701611b67565b9150509250925092565b60008060408385031215611cf857600080fd5b6000611d0685828601611afe565b9250506020611d1785828601611b67565b9150509250929050565b600060208284031215611d3357600080fd5b6000611d4184828501611b28565b91505092915050565b60008060008060808587031215611d6057600080fd5b6000611d6e87828801611b7c565b9450506020611d7f87828801611b3d565b9350506040611d9087828801611b7c565b9250506060611da187828801611b7c565b91505092959194509250565b611db6816124bc565b82525050565b611dc58161242f565b82525050565b611dd48161242f565b82525050565b611de381612441565b82525050565b611df2816124ce565b82525050565b611e01816124f2565b82525050565b611e1081612516565b82525050565b611e1f8161253a565b82525050565b611e2e8161255e565b82525050565b611e3d8161244d565b82525050565b6000611e4e82612413565b611e58818561241e565b9350611e688185602086016125a6565b611e71816125d9565b840191505092915050565b6000611e8960238361241e565b91507f45524332303a207472616e7366657220746f20746865207a65726f206164647260008301527f65737300000000000000000000000000000000000000000000000000000000006020830152604082019050919050565b6000611eef60228361241e565b91507f45524332303a20617070726f766520746f20746865207a65726f20616464726560008301527f73730000000000000000000000000000000000000000000000000000000000006020830152604082019050919050565b6000611f5560258361241e565b91507f45524332303a207472616e736665722066726f6d20746865207a65726f20616460008301527f64726573730000000000000000000000000000000000000000000000000000006020830152604082019050919050565b6000611fbb60248361241e565b91507f45524332303a20617070726f76652066726f6d20746865207a65726f2061646460008301527f72657373000000000000000000000000000000000000000000000000000000006020830152604082019050919050565b6101608201600082015161202b6000850182611dbc565b50602082015161203e6020850182611dbc565b5060408201516120516040850182612113565b5060608201516120646060850182611e34565b5060808201516120776080850182611e34565b5060a082015161208a60a0850182612131565b5060c082015161209d60c0850182612131565b5060e08201516120b060e0850182612131565b506101008201516120c5610100850182612131565b506101208201516120da610120850182611dbc565b506101408201516120ef610140850182612131565b50505050565b6120fe8161245a565b82525050565b61210d81612476565b82525050565b61211c81612496565b82525050565b61212b81612496565b82525050565b61213a816124a5565b82525050565b612149816124a5565b82525050565b612158816124af565b82525050565b60006020820190506121736000830184611dcb565b92915050565b600060408201905061218e6000830185611dad565b61219b6020830184612140565b9392505050565b60006060820190506121b76000830186611dcb565b6121c46020830185611dcb565b6121d16040830184612122565b949350505050565b60006040820190506121ee6000830185611dcb565b6121fb6020830184612140565b9392505050565b60006020820190506122176000830184611dda565b92915050565b60006020820190506122326000830184611de9565b92915050565b600060208201905061224d6000830184611df8565b92915050565b60006020820190506122686000830184611e07565b92915050565b60006020820190506122836000830184611e16565b92915050565b600060208201905061229e6000830184611e25565b92915050565b600060208201905081810360008301526122be8184611e43565b905092915050565b600060208201905081810360008301526122df81611e7c565b9050919050565b600060208201905081810360008301526122ff81611ee2565b9050919050565b6000602082019050818103600083015261231f81611f48565b9050919050565b6000602082019050818103600083015261233f81611fae565b9050919050565b60006101608201905061235c6000830184612014565b92915050565b60006020820190506123776000830184612104565b92915050565b60006020820190506123926000830184612122565b92915050565b60006020820190506123ad6000830184612140565b92915050565b60006080820190506123c86000830187612140565b6123d560208301866120f5565b6123e26040830185612140565b6123ef6060830184612140565b95945050505050565b600060208201905061240d600083018461214f565b92915050565b600081519050919050565b600082825260208201905092915050565b600061243a82612476565b9050919050565b60008115159050919050565b60008160020b9050919050565b60006fffffffffffffffffffffffffffffffff82169050919050565b600073ffffffffffffffffffffffffffffffffffffffff82169050919050565b600062ffffff82169050919050565b6000819050919050565b600060ff82169050919050565b60006124c782612582565b9050919050565b60006124d9826124e0565b9050919050565b60006124eb82612476565b9050919050565b60006124fd82612504565b9050919050565b600061250f82612476565b9050919050565b600061252182612528565b9050919050565b600061253382612476565b9050919050565b60006125458261254c565b9050919050565b600061255782612476565b9050919050565b600061256982612570565b9050919050565b600061257b82612476565b9050919050565b600061258d82612594565b9050919050565b600061259f82612476565b9050919050565b60005b838110156125c45780820151818401526020810190506125a9565b838111156125d3576000848401525b50505050565b6000601f19601f8301169050919050565b6125f38161242f565b81146125fe57600080fd5b50565b61260a81612441565b811461261557600080fd5b50565b6126218161245a565b811461262c57600080fd5b50565b61263881612496565b811461264357600080fd5b50565b61264f816124a5565b811461265a57600080fd5b5056fe45524332303a207472616e7366657220616d6f756e7420657863656564732062616c616e636545524332303a207472616e7366657220616d6f756e74206578636565647320616c6c6f77616e636545524332303a2064656372656173656420616c6c6f77616e63652062656c6f77207a65726fa2646970667358221220ea5f4daa9a2ec14d7790119f7f8bb2b6840d3d9327107c20fbdf3f1d082642a464736f6c63430007060033",
  "immutableReferences": {
    "2651": [
      {
        "length": 32,
        "start": 1901
      },
      {
        "length": 32,
        "start": 3197
      },
      {
        "length": 32,
        "start": 4779
      },
      {
        "length": 32,
        "start": 4818
      }
    ]
  },
  "source": "// SPDX-License-Identifier: MIT\npragma solidity >=0.4.22 <0.9.0;\npragma abicoder v2;\n\nimport '@openzeppelin/contracts/math/SafeMath.sol';\nimport '@openzeppelin/contracts/token/ERC20/ERC20.sol';\nimport '@uniswap/v3-core/contracts/interfaces/IUniswapV3Factory.sol';\nimport '@uniswap/v3-core/contracts/interfaces/IUniswapV3Pool.sol';\n\nimport '@uniswap/v3-periphery/contracts/interfaces/external/IWETH9.sol';\nimport '@uniswap/v3-periphery/contracts/interfaces/IPeripheryImmutableState.sol';\nimport '@uniswap/v3-periphery/contracts/interfaces/INonfungiblePositionManager.sol';\nimport '@uniswap/v3-core/contracts/libraries/TickMath.sol';\n\ncontract Token is ERC20 {\n\n  using SafeMath for uint256;\n\n  address public customTokenAddress = address(this);\n  address public WETH9;\n\n  uint24 public poolFee = 10000;\n  uint160 public testSqrtPriceX96 = 79228162514264337593543950336; // = 1?\n\n  IPeripheryImmutableState public peripheryImmutableState = IPeripheryImmutableState(0xE592427A0AEce92De3Edee1F18E0157C05861564);\n  IUniswapV3Factory public uniFactory;\n  IUniswapV3Pool public uniPool; \n  IWETH9 public uniWETH9;\n  INonfungiblePositionManager public immutable nonfungiblePositionManager = INonfungiblePositionManager(0xC36442b4a4522E871399CD717aBDD847Ab11FE88);\n\n  uint256 public amountToken = 50000000000000000;\n  uint256 public amountWETH = 50000000000000000;\n  uint256 public amountWETHTransfer;\n\n  constructor(string memory _name, string memory _symbol) ERC20(_name, _symbol) {\n    _mint(msg.sender, 100000000000000000000);\n    WETH9 = peripheryImmutableState.WETH9();\n    uniWETH9 = IWETH9(WETH9);\n    uniFactory = IUniswapV3Factory(peripheryImmutableState.factory());\n  }\n\n  // user deposit eth into weth contract to wrap\n  // user approve token contract to transfer weth\n  // transfer weth into token contract\n  // token contract approve manager to transfer weth\n\n  // get sqrtPriceX96 of similar pool\n  // figure out decimals confusion \n\n  // check allowances\n  // set parameters to know working with different fee\n\n  ////////\n\n  // create instance\n  // check contract address\n  // check WETH9 address\n  // check factory address\n\n  // TRANSFERS \n\n  // transfer tokens to contract\n  function transferTokensToContract() external {\n    transfer(address(this), amountToken);\n  }\n\n  // deposit ETH, wrap, transfer\n  function deposit() external payable {\n    require(msg.value > 0);\n    amountWETHTransfer = msg.value;\n    uniWETH9.deposit{value: msg.value}();\n    uniWETH9.transfer(msg.sender, amountWETHTransfer);\n  }\n  function transferToSender() external {\n    uniWETH9.transfer(msg.sender, amountWETHTransfer);\n  }\n\n  // create uniswap pool\n  function createUniPool() external {\n    uniPool = IUniswapV3Pool(uniFactory.createPool(customTokenAddress, WETH9, poolFee));\n  }\n\n  // initialize uniswap pool\n  function initUniPool() external {\n    uniPool.initialize(testSqrtPriceX96);\n  }\n\n  // get pool - check\n  function getUniPool() external {\n    uniPool = IUniswapV3Pool(uniFactory.getPool(customTokenAddress, WETH9, poolFee));\n  }\n\n  // approve manager\n  function approveManagerWETH() external {\n    uniWETH9.approve(address(nonfungiblePositionManager), amountWETH);\n  }\n  function approveManagerToken() external {\n    approve(address(nonfungiblePositionManager), amountToken);\n  }\n\n  // mint position \n  function mintPosition(address _token0, address _token1, uint24 _fee, uint256 _amountToken0, uint256 _amountToken1) external returns (\n            uint256 tokenId,\n            uint128 liquidity,\n            uint256 amount0,\n            uint256 amount1\n        ){\n    INonfungiblePositionManager.MintParams memory params =\n      INonfungiblePositionManager.MintParams({\n          token0: _token0,\n          token1: _token1,\n          fee: _fee,\n          tickLower: TickMath.MIN_TICK,\n          tickUpper: TickMath.MAX_TICK,\n          amount0Desired: _amountToken0,\n          amount1Desired: _amountToken1,\n          amount0Min: 0,\n          amount1Min: 0,\n          recipient: msg.sender,\n          // recipient: address(this),\n          deadline: block.timestamp + 360 // need to extend?\n      });\n\n    // pool must already be created and initialized in order to mint\n    (tokenId, liquidity, amount0, amount1) = nonfungiblePositionManager.mint(params);\n  }\n}",
  "sourcePath": "/Users/andrewmlevy/Desktop/DecentLabs/token_test_2/contracts/Token.sol",
  "compiler": {
    "name": "solc",
    "version": "0.7.6+commit.7338295f.Emscripten.clang"
  },
  "schemaVersion": "3.4.3",
  "updatedAt": "2021-08-31T13:11:31.165Z",
  "networkType": "ethereum",
  "devdoc": {
    "kind": "dev",
    "methods": {
      "allowance(address,address)": {
        "details": "See {IERC20-allowance}."
      },
      "approve(address,uint256)": {
        "details": "See {IERC20-approve}. Requirements: - `spender` cannot be the zero address."
      },
      "balanceOf(address)": {
        "details": "See {IERC20-balanceOf}."
      },
      "decimals()": {
        "details": "Returns the number of decimals used to get its user representation. For example, if `decimals` equals `2`, a balance of `505` tokens should be displayed to a user as `5,05` (`505 / 10 ** 2`). Tokens usually opt for a value of 18, imitating the relationship between Ether and Wei. This is the value {ERC20} uses, unless {_setupDecimals} is called. NOTE: This information is only used for _display_ purposes: it in no way affects any of the arithmetic of the contract, including {IERC20-balanceOf} and {IERC20-transfer}."
      },
      "decreaseAllowance(address,uint256)": {
        "details": "Atomically decreases the allowance granted to `spender` by the caller. This is an alternative to {approve} that can be used as a mitigation for problems described in {IERC20-approve}. Emits an {Approval} event indicating the updated allowance. Requirements: - `spender` cannot be the zero address. - `spender` must have allowance for the caller of at least `subtractedValue`."
      },
      "increaseAllowance(address,uint256)": {
        "details": "Atomically increases the allowance granted to `spender` by the caller. This is an alternative to {approve} that can be used as a mitigation for problems described in {IERC20-approve}. Emits an {Approval} event indicating the updated allowance. Requirements: - `spender` cannot be the zero address."
      },
      "name()": {
        "details": "Returns the name of the token."
      },
      "symbol()": {
        "details": "Returns the symbol of the token, usually a shorter version of the name."
      },
      "totalSupply()": {
        "details": "See {IERC20-totalSupply}."
      },
      "transfer(address,uint256)": {
        "details": "See {IERC20-transfer}. Requirements: - `recipient` cannot be the zero address. - the caller must have a balance of at least `amount`."
      },
      "transferFrom(address,address,uint256)": {
        "details": "See {IERC20-transferFrom}. Emits an {Approval} event indicating the updated allowance. This is not required by the EIP. See the note at the beginning of {ERC20}. Requirements: - `sender` and `recipient` cannot be the zero address. - `sender` must have a balance of at least `amount`. - the caller must have allowance for ``sender``'s tokens of at least `amount`."
      }
    },
    "version": 1
  },
  "userdoc": {
    "kind": "user",
    "methods": {},
    "version": 1
  }
}